:020000040800F2
:10000000180400209D01000873040008FF02000886
:1000100071040008090200083D0B00080000000000
:100020000000000000000000000000008B06000837
:100030000B02000800000000750400080108000819
:10004000B7010008B7010008B7010008B7010008B0
:10005000B7010008B7010008B7010008B7010008A0
:10006000B7010008B7010008B7010008B701000890
:10007000B7010008B7010008B7010008B701000880
:10008000B7010008B7010008B7010008B701000870
:10009000B7010008B7010008B7010008B701000860
:1000A000B7010008B7010008B7010008B701000850
:1000B000B7010008B7010008B7010008B701000840
:1000C000B7010008B7010008B7010008B701000830
:1000D000B7010008B7010008B7010008B701000820
:1000E000B7010008B7010008B7010008B701000810
:1000F000B7010008B7010008B7010008B701000800
:10010000B7010008B7010008B7010008B7010008EF
:10011000B7010008B7010008B7010008B7010008DF
:10012000B7010008B7010008B7010008B7010008CF
:10013000B7010008B7010008B7010008B7010008BF
:10014000B7010008B7010008B7010008B7010008AF
:10015000B7010008B7010008B7010008B70100089F
:10016000B7010008B7010008B7010008B70100088F
:10017000B7010008B7010008B7010008B70100087F
:10018000B7010008B7010008DFF80CD000F02AF82A
:10019000004800473D0D000818040020064880472D
:1001A00006480047FEE7FEE7FEE7FEE7FEE7FEE75C
:1001B000FEE7FEE7FEE7FEE7050800088901000804
:1001C000D2B201E000F8012B491EFBD27047002299
:1001D000F6E710B513460A4604461946FFF7F0FF46
:1001E000204610BD064C074D06E0E06840F00103D4
:1001F00094E8070098471034AC42F6D3FFF7C8FFE5
:10020000240F0008440F0008FEE770470549002846
:10021000086802D040F4807001E020F4807008602B
:1002200070470000003C0240014908707047000020
:10023000003C0240F0B50023012403270D6804FAB6
:1002400003F21540954242D1D0F800C05E0007FA93
:1002500006F52CEA050CC0F800C091F804C0D0F8EF
:1002600000E00CFA06FC4CEA0E0CC0F800C091F855
:1002700004C0BCF1010F02D0BCF1020F1FD1D0F8B5
:1002800008C02CEA050CC0F808C091F805C0D0F8E9
:1002900008E00CFA06FC4CEA0E0CC0F808C0D0F8D6
:1002A00004C02CEA020CC0F804C0426891F806C0F1
:1002B0000CFA03FC1FFA8CFC42EA0C024260C26892
:1002C000AA43C260CA79C568B2402A43C2605B1CB7
:1002D000102BB3D3F0BD4B07DB0E9A40C90810B505
:1002E00000EB8100016A0F249C40A1430162016A76
:1002F0001143016210BD4183704701837047FEE7DF
:100300003EB516489FED140A012180ED000A80EDEC
:10031000010A80ED020A80ED030A042000F0ACF827
:100320000121022000F0B4F85320ADF800000020B5
:1003300044F61F61ADF80800094CADF802000191C8
:100340008DF80A006946204600F092FB0121204604
:1003500000F086FA3EBD000000007A440400002050
:10036000000400402DE9F04F87B08146DDF8408061
:1003700002208B468DF818008DF819009A460592D8
:1003800005A95846FFF756FF14216846FFF71FFFDF
:100390006020ADF800004FF47A7002900120ADF8B3
:1003A00002000020254FADF80C00B8F1010F09D074
:1003B000B8F1020F12D0B8F1030F1BD0B8F1040F3F
:1003C00024D02EE01E4C1F4D1F4E6946384600F0CB
:1003D00051FA0821384600F07DFA22E01B4C1C4DF2
:1003E0001C4E6946384600F07BFA0821384600F07A
:1003F000B7FA16E0184C194D194E6946384600F008
:10040000B9FA0821384600F0F3FA0AE0154C164D07
:10041000164E6946384600F0F1FA0821384600F0D9
:100420001DFB022251465846FFF755FFC9E900451A
:10043000C9F8086007B0BDE8F08F00000004004074
:1004400041070008ED0A0008F905000871070008D7
:10045000010B000805060008A1070008150B00089D
:1004600011060008D1070008290B00081D06000826
:10047000FEE7704770470000044A0029116801D068
:10048000014300E0814311607047000030380240B2
:10049000044A0029116801D0014300E08143116042
:1004A0007047000040380240044A0029116801D01A
:1004B000014300E08143116070470000443802406E
:1004C0001048016841F0010101600E4A0021083224
:1004D000116002680C4B1A400260031D0B4A1A603F
:1004E000084B0B4A84331A60084A103A1B1D1A60E5
:1004F000026822F48022026002480C300160181D5C
:100500000160704700380240FFFFF6EA1030002417
:100510000030002002460020510901290BD0022999
:100520000CD00849096802F01F02012393400B42D6
:1005300000D00120704703497439F3E70149091FCE
:10054000F0E70000743802400248006800F00C0038
:100550007047000008380240034A116821F0F0019A
:100560000143116070470000083802400249002230
:100570000A700870704700000238024001490860A4
:100580007047000000004742034A116821F4E0511F
:1005900001431160704700000838024003490A68AF
:1005A00022F4604242EAC000086070470838024006
:1005B00001490866704700000000474241EA821185
:1005C0005A0810B5054B029C03EB0242114301434C
:1005D00041EA04600249086010BD00000000FFFF0E
:1005E00004380240034A116821F0030101431160FD
:1005F0007047000008380240014890ED000A70473B
:1006000004000020014890ED010A7047040000201A
:10061000014890ED020A704704000020014890ED67
:10062000030A7047040000200029018802D041F02D
:10063000400101E021F040010180704702460020A6
:1006400012890A4200D00120704780897047818159
:10065000704730B502884C8802F441530A88CD882F
:1006600022438C882C4322430C8922434C89224309
:100670008C892243CC8922431A430280828B22F444
:1006800000628283098A018230BD70470CB5002068
:100690002749019000900A6842F480320A604FF4C2
:1006A000A0430A6802F400320092019A521C01929F
:1006B000009A12B9019A9A42F3D10A68920334D58A
:1006C000012000901A484030026842F080520260D7
:1006D0001848026842F44042026015480830026837
:1006E0000260026842F400420260026842F4A052D2
:1006F0000260031F104A1A600A6842F080720A60A2
:100700000A689201FCD50D4A40F20571116001683A
:1007100021F003010160016841F0020101600168FC
:10072000C1F381010229FAD10CBD00900CBD00007B
:10073000003802400070004008544004003C024071
:1007400010EE100A07490844B0F5000F08D8064813
:10075000064980ED000ABCEEC00A10EE100A0860DF
:1007600070470000000086BB0400002034040040F5
:1007700010EE100A07490844B0F5000F08D80648E3
:10078000064980ED010ABCEEC00A10EE100A0860AE
:1007900070470000000086BB0400002038040040C1
:1007A00010EE100A07490844B0F5000F08D80648B3
:1007B000064980ED020ABCEEC00A10EE100A08607D
:1007C00070470000000086BB040000203C0400408D
:1007D00010EE100A07490844B0F5000F08D8064883
:1007E000064980ED030ABCEEC00A10EE100A08604C
:1007F00070470000000086BB040000204004004059
:1008000070470000124810B5016841F470010160A2
:100810001048016841F0010101600E4A00210832D0
:10082000116002680C4B1A400260031D0B4A1A60EB
:10083000026822F48022026006480C300160FFF753
:1008400025FF03494FF000608039086010BD0000AB
:1008500088ED00E000380240FFFFF6FE1030002473
:100860000029018802D041F0010101E021F00101DD
:100870000180704730B5028C22F001020284028CA4
:100880008388048B22F0020224F073050C882C4329
:100890008D8915434A882A430C4DA84202D00C4D3D
:1008A000A8420DD122F00805CA8923F440732A43D7
:1008B00022F004058A882A430D8A1D434B8A2B4364
:1008C0008380048389684163028430BD0000014055
:1008D00000040140028B22F008020A4302837047A1
:1008E00070B5028C22F010020284028C8488038B83
:1008F0000D8823F4E6464FF6FF7303EA05253543DA
:100900008E8922F0200203EA061616434A8803EA7B
:1009100002123243104EB04202D0104EB04215D1F6
:1009200022F08006CA8924F4406403EA02123243AA
:1009300022F040068A8803EA021232430E8A03EA52
:10094000860626434C8A03EA840434438480058364
:1009500089688163028470BD000001400004014089
:10096000028B4FF6FF7322F4006203EA0121114368
:100970000183704770B5028C22F480720284028C6D
:100980008488838B0D8823F073031D4322F4007346
:100990008E894FF6FF7202EA06261E434B8802EA52
:1009A00003233343104EB04202D0104EB04215D153
:1009B00023F40066CB8924F4405402EA0323334332
:1009C00023F480668B8802EA032333430E8A02EA0B
:1009D000061626434C8A02EA041434438480858335
:1009E0008968C163038470BD0000014000040140B8
:1009F000828B22F008020A438283704770B5028C12
:100A000022F480520284048C8288838B0D8823F424
:100A1000E6464FF6FF7303EA0525354324F40056F6
:100A20008C8903EA043434434E8803EA06362643AD
:100A3000084CA04202D0084CA04205D122F48044C8
:100A40000A8A03EA821222438280858389680164CC
:100A5000068470BD0000014000040140828B4FF607
:100A6000FF7322F4006203EA01211143818370477E
:100A700030B50288164B174C98420DD0A0420BD0CF
:100A8000B0F1804F08D0144DA84205D0134DA842B4
:100A900002D0134DA84203D122F070054A882A43A0
:100AA000104DA84206D0104DA84203D022F4407544
:100AB0000A892A4302804A68C2620A8802859842EB
:100AC00001D0A04201D1897A01860121818230BD05
:100AD0000000014000040140000400400008004004
:100AE000000C004000100040001400400348D0ED0E
:100AF000000A30EE800AFFF723BE00000400002049
:100B00000348D0ED010A30EE800AFFF731BE000045
:100B1000040000200348D0ED020A30EE800AFFF7FF
:100B20003FBE0000040000200348D0ED030A30EE71
:100B3000800AFFF74DBE000004000020FEE702E03F
:100B400008C8121F08C1002AFAD170477047002058
:100B500001E001C1121F002AFBD170472DE9F043CB
:100B600087B001211D20FFF787FC01210803FFF753
:100B70009BFC01210220FFF78BFC01258DF804501E
:100B800000244FF470408DF80640032700908DF844
:100B900005708DF8074069463B48FFF74BFBE020A6
:100BA0000226DFF8E88000908DF804608DF806409A
:100BB00069464046FFF73EFB0820DFF8D4900090DE
:100BC0008DF804508DF8064069464846FFF732FB21
:100BD0008DF804608DF805704FF470702D4F009003
:100BE0008DF806408DF8075069463846FFF722FB1E
:100BF000022206213846FFF76EFB02220721384603
:100C0000FFF769FB022208213846FFF764FB022246
:100C100009213846FFF75FFB052211464046FFF7E2
:100C20005AFB052206214046FFF755FB0522072106
:100C30004046FFF750FBADF80840ADF814404FF4C4
:100C40008270ADF80A00ADF80C40ADF81640ADF872
:100C500010504FF44070104CADF81200ADF80E601B
:100C600002A92046FFF7F5FC08214846FFF745FB9F
:100C700001212046FFF7D8FC4FF47A7000F047F8C6
:100C800007B0BDE8F0830000000C02400000024005
:100C900000100240000802400030014038B5FFF764
:100CA0000FFC0020FFF76AFC0120FFF75FFC3120FA
:100CB000FFF730FC0028FAD00120FFF7A7FA052043
:100CC000FFF7B2FA0020FFF747FC4FF4A05420468C
:100CD000FFF75AFC2046FFF761FC04200090022336
:100CE0004FF4A87208210005FFF768FC0120FFF708
:100CF0005FFC3920FFF70EFC0028FAD00220FFF736
:100D000071FC00BFFFF720FC0828FBD138BD00B5FF
:100D100002464BF67F3306E0184600F0F9F800F083
:100D200005F80028FBD0521EF6D200BD4FF0E0209F
:100D30000121006901EA1040704700001FB5FFF76C
:100D4000ADFFFFF70BFFFFF7DBFA6721202000F074
:100D5000A5F80120062300901A462F4901A8FFF7A5
:100D600001FB4FF4FA60029CFFF7D1FF00254FF41E
:100D70007A7600BFB2EE040AA0473046FFF7C7FFFD
:100D80006D1C642DF6DB254DDFF894A04FF48057E1
:100D90004FF480486FF013064FF400494FF4005BA6
:100DA000292000F041F828702B2000F03DF86870F1
:100DB0002D2000F039F8A87095F900003946B042AE
:100DC000504605DAFFF799FA9FED160AA04701E0B1
:100DD000FFF791FA95F9000041461428504602DDCC
:100DE000FFF78BFA01E0FFF786FA95F90100494613
:100DF000B042504602DAFFF780FA01E0FFF77BFAD3
:100E000095F9010059461428504602DDFFF775FA9E
:100E1000C6E7FFF770FAC3E70008024000000020B1
:100E2000000C02400000964470B51A4D044608219B
:100E30002846FFF760FA44F08006174C022120464E
:100E4000FFF7FCFB0028F9D031462046FFF7FFFBF7
:100E500001212046FFF7F2FB0028F9D02046FFF7DA
:100E6000F4FB02212046FFF7E9FB0028F9D000211E
:100E70002046FFF7ECFB01212046FFF7DFFB0028AF
:100E8000F9D008212846FFF738FA2046FFF7DDFBA6
:100E9000C0B270BD00100240003001402DE9F041A9
:100EA000194D0E46074608212846FFF724FA174C2D
:100EB00002212046FFF7C2FB0028F9D03946204620
:100EC000FFF7C5FB01212046FFF7B8FB0028F9D04A
:100ED0002046FFF7BAFB02212046FFF7AFFB0028B0
:100EE000F9D031462046FFF7B2FB01212046FFF73B
:100EF000A5FB0028F9D02046FFF7A7FB2846BDE850
:100F0000F0410821FFF7F9B900100240003001401C
:100F10004FF0E021486100208861086940F001003D
:100F200008617047440F0008000000201400000012
:100F30003E0B0008580F00081400002004040000B5
:100F40004E0B000800000000000000000000000040
:080F5000000000000000000099
:040000050800018965
:00000001FF
